S011000033386B487A5F6C65642E73726563E7
S11300000EC028C027C026C025C024C023C022C0DB
S113001021C020C01FC01EC01DC01CC01BC0112495
S11300201FBECFE5D2E0DEBFCDBF10E0A0E6B0E05A
S1130030E8E8F0E002C005900D92A036B107D9F7C8
S113004010E0A0E6B0E001C01D92A036B107E1F7D0
S11300500AD018C0D5CF81E087BB92E49ABD83BF94
S113006088E689BD089581E087BB92E49ABD83BF89
S113007088E689BD85B7806285BF889585B78F7D01
S10B008085BFF8CFF894FFCF0F
S9030000FC
